:020000040800F2
:1000000008040020A1010008F703000811020008FD
:10001000F50300080D020008DD04000800000000E0
:10002000000000000000000000000000FB030008CA
:100030000F02000800000000F9030008FD0300089B
:10004000BB010008BB010008BB010008BB010008A0
:10005000BB010008BB010008BB010008BB01000890
:10006000BB010008BB010008BB010008BB01000880
:10007000BB010008BB010008BB010008BB01000870
:10008000BB010008BB010008BB010008BB01000860
:10009000BB010008BB010008BB010008BB01000850
:1000A000BB010008BB010008BB010008BB01000840
:1000B000BB010008BB010008BB010008BB01000830
:1000C000BB010008BB010008BB010008BB01000820
:1000D000BB010008BB010008BB010008BB01000810
:1000E000BB010008BB010008BB010008BB01000800
:1000F000BB010008BB010008BB010008BB010008F0
:10010000BB010008BB010008BB010008BB010008DF
:10011000BB010008BB010008BB010008BB010008CF
:10012000BB010008BB010008BB010008BB010008BF
:10013000BB010008BB010008BB010008BB010008AF
:10014000BB010008BB010008BB010008BB0100089F
:10015000BB010008BB010008BB010008BB0100088F
:10016000BB010008BB010008BB010008BB0100087F
:10017000BB010008BB010008BB0100080000000033
:10018000BB010008BB010008DFF810D000F02CF81C
:1001900000480047FD040008AFF300800804002079
:1001A0000648804706480047FEE7FEE7FEE7FEE711
:1001B000FEE7FEE7FEE7FEE7FEE7FEE7C104000814
:1001C00089010008D2B201E000F8012B491EFBD2E0
:1001D00070470022F6E710B513460A460446194652
:1001E000FFF7F0FF204610BD064C074D06E0E06823
:1001F00040F0010394E8070098471034AC42F6D36E
:10020000FFF7C6FF6C0500088C050008FEE7704785
:10021000FEE70000044908B50A6802430A6009685D
:100220000140009108BD000030380240F0B50A6876
:100230000F2692FAA2F2B2FA82F303248AE001278F
:100240009F4015EA07027DD04D68012D01D0022D97
:100250001BD18D68876892FAA2FCBCFA8CFC4FEA2D
:100260004C0C04FA0CFC27EA0C0792FAA2FCBCFA2C
:100270008CFC4FEA4C0C05FA0CF52F438760CD68D7
:100280004768554397432F4347600F69D0F80CC028
:1002900092FAA2F5B5FA85F54FEA450E04FA0EF585
:1002A0002CEA050C92FAA2F5B5FA85F56D00AF407F
:1002B0004CEA070CC0F80CC04D68022D33D192FAFD
:1002C000A2F5B5FA85F5082D15D2D1F814C0056A46
:1002D00092FAA2F7B7FA87F7BF0006FA07F7BD430D
:1002E00092FAA2F7B7FA87F7BF000CFA07FC45EAC3
:1002F0000C05056217E0D1F814E0476A150A95FA73
:10030000A5FCBCFA8CFC4FEA8C0C06FA0CFC95FAA6
:10031000A5F5B5FA85F5AD0027EA0C070EFA05FE3E
:1003200047EA0E0747624D68076892FAA2FCBCFADA
:100330008CFC4FEA4C0C04FA0CFE27EA0E0792FAEA
:10034000A2F200E005E0B2FA82F2520095402F439B
:1003500007605B1C0A681546DA407FF470AF002026
:10036000F0BD4FF47A71B0FBF1F14FF0E020491E7F
:1003700041610021816105210161704701490860E7
:10038000704700000000002070B586B01821684654
:10039000FFF71FFF1020FFF73DFF8020FFF73AFF18
:1003A0000120FFF737FF114EC020B0611820002454
:1003B000CDE900040125694604950D48FFF736FF95
:1003C0000220CDE90054049069463046FFF72EFF25
:1003D000C020CDE900050320CDE90204694630467E
:1003E0000494FFF723FF06B070BD00000000024038
:1003F00000100240FEE770477047704770470000EA
:10040000294810B5016821F00F0141F00501016094
:1004100000682648016841F4804101602448016871
:1004200041F4803101600168C1F340410029FAD0F4
:100430001F49204A091D0B681F4C23401A430A60BC
:100440000A6822F440320A60016841F0807101605C
:100450000168C1F340610029FAD0154808300168ED
:1004600021F0F0010160016821F4E05141F4A05154
:100470000160016821F4604141F4004101600168BC
:1004800021F0030141F002010160016801F00C015B
:100490000829FAD1094C2046FFF763FF2046BDE842
:1004A0001040FFF76BBF0000003C024000700040AE
:1004B00000380240085440000080BFFF007A030A61
:1004C0000548016841F47001016003494FF0006084
:1004D000803908607047000088ED00E0FEE702E028
:1004E00008C8121F08C1002AFAD1704770470020BF
:1004F00001E001C1121F002AFBD17047164808B560
:10050000016841F480410160006800F4804000907F
:100510001148001F016841F08051016000680F49D7
:1005200000F08050009008684FF6FF0210400C4A1F
:1005300040F4407010430860FFF762FFFFF724FFAC
:100540000948084A43011169090702D44021816121
:10055000F9E78361F7E70000443802400CED00E062
:100560000000FA0500100240000002408C0500085F
:100570000000002004000000DE04000890050008D0
:100580000400002004040000EE0400080024F4002D
:040000050800018965
:00000001FF
