:020000040800F2
:10000000080400209D010008730500083102000863
:1000100071050008090200085906000800000000E8
:10002000000000000000000000000000770500084C
:100030000B020008000000007505000879050008A3
:10004000B7010008B7010008B7010008B7010008B0
:10005000B7010008B7010008B7010008B7010008A0
:10006000B7010008B70100080D020008B701000839
:10007000B7010008B7010008B7010008B701000880
:10008000B7010008B7010008B7010008B701000870
:10009000B7010008B7010008B7010008B701000860
:1000A000B7010008B7010008B7010008B701000850
:1000B000B7010008B7010008B7010008B701000840
:1000C000B7010008B7010008B7010008B701000830
:1000D000B7010008B7010008B7010008B701000820
:1000E000B7010008B7010008B7010008B701000810
:1000F000B7010008B7010008B7010008B701000800
:10010000B7010008B7010008B7010008B7010008EF
:10011000B7010008B7010008B7010008B7010008DF
:10012000B7010008B7010008B7010008B7010008CF
:10013000B7010008B7010008B7010008B7010008BF
:10014000B7010008B7010008B7010008B7010008AF
:10015000B7010008B7010008B7010008B70100089F
:10016000B7010008B7010008B7010008B70100088F
:10017000B7010008B7010008B7010008000000003F
:10018000B7010008B7010008DFF80CD000F02AF82A
:100190000048004779060008080400200648804708
:1001A00006480047FEE7FEE7FEE7FEE7FEE7FEE75C
:1001B000FEE7FEE7FEE7FEE73D06000889010008CE
:1001C000D2B201E000F8012B491EFBD27047002299
:1001D000F6E710B513460A4604461946FFF7F0FF46
:1001E000204610BD064C074D06E0E06840F00103D4
:1001F00094E8070098471034AC42F6D3FFF7C8FFE5
:10020000CC060008EC060008FEE7704706491020FF
:100210000A68904306D1102008600448416981F0C3
:100220004001416170470000143C01400000024061
:10023000FEE70000044908B50A6802430A6009683D
:100240000140009108BD00003038024030B5264A18
:10025000002405790168131F85B371B345798DB109
:10026000012D17D0022D18D0012483792BB31E49FC
:1002700008310A1F012B18D0022B20D0032B22D0CB
:10028000012428E015688D43156001681A680A4347
:100290001A60EAE71D688D4301E01D680D431D608B
:1002A000016813680B431360DFE703680D689D4323
:1002B0000D6000681168014311600CE00DE00368F7
:1002C00015689D4302E0036815681D4315600068CA
:1002D0000A6802430A60204630BD1D688D431D60D8
:1002E000006811688143E7E7043C0140F0B50A6803
:1002F0000F2692FAA2F2B2FA82F303248AE00127CF
:100300009F4015EA07027DD04D68012D01D0022DD6
:100310001BD18D68876892FAA2FCBCFA8CFC4FEA6C
:100320004C0C04FA0CFC27EA0C0792FAA2FCBCFA6B
:100330008CFC4FEA4C0C05FA0CF52F438760CD6816
:100340004768554397432F4347600F69D0F80CC067
:1003500092FAA2F5B5FA85F54FEA450E04FA0EF5C4
:100360002CEA050C92FAA2F5B5FA85F56D00AF40BE
:100370004CEA070CC0F80CC04D68022D33D192FA3C
:10038000A2F5B5FA85F5082D15D2D1F814C0056A85
:1003900092FAA2F7B7FA87F7BF0006FA07F7BD434C
:1003A00092FAA2F7B7FA87F7BF000CFA07FC45EA02
:1003B0000C05056217E0D1F814E0476A150A95FAB2
:1003C000A5FCBCFA8CFC4FEA8C0C06FA0CFC95FAE6
:1003D000A5F5B5FA85F5AD0027EA0C070EFA05FE7E
:1003E00047EA0E0747624D68076892FAA2FCBCFA1A
:1003F0008CFC4FEA4C0C04FA0CFE27EA0E0792FA2A
:10040000A2F200E005E0B2FA82F2520095402F43DA
:1004100007605B1C0A681546DA407FF470AF002065
:10042000F0BD4FF47A71B0FBF1F14FF0E020491EBE
:100430004161002181610521016170470149086026
:1004400070470000000000202DE9F04188B0002432
:100450000694182168460794FFF7B9FE1020FFF7AD
:10046000E9FE8020FFF7E6FE0120FFF7E3FE3B4EAA
:10047000C020B0610820CDE90004394F012569464C
:1004800004953846FFF732FF0220CDE9005404906E
:1004900069463046FFF72AFFC0204FF00308CDE938
:1004A0000005CDE90284694604943046FFF71EFF3B
:1004B0002C490420D1F808280F2393FAA3F3B3FAA8
:1004C00083F322F00F0298400243C1F808288DF808
:1004D0001C5010268DF81D4006968DF81E5006A85B
:1004E000FFF7B4FEF96896FAA6F0B0FA80F0420081
:1004F00008FA02F0814396FAA6F0B0FA80F04000C4
:1005000004FA00F00143F960386896FAA6F1B1FAEE
:1005100081F14A0008FA02F1884396FAA6F1B1FA8D
:1005200081F14A0004FA02F1084338600E4800687D
:10053000C0F30220011D072901D2002000E0C01EE7
:100540000A498440200181F800044FF0E0214FF473
:100550008060C1F8000108B0BDE8F08100000240F1
:1005600000100240043001400CED00E00AE000E021
:10057000FEE770477047704770470000294810B584
:10058000016821F00F0141F0050101600068264873
:10059000016841F4804101602448016841F48031E0
:1005A00001600168C1F340410029FAD01F49204A87
:1005B000091D0B681F4C23401A430A600A6822F485
:1005C00040320A60016841F0807101600168C1F346
:1005D00040610029FAD015480830016821F0F00187
:1005E0000160016821F4E05141F4A051016001680B
:1005F00021F4604141F400410160016821F00301F0
:1006000041F002010160016801F00C010829FAD1F2
:10061000094C2046FFF705FF2046BDE81040FFF7D4
:100620000DBF0000003C0240007000400038024056
:10063000085440000080BFFF007A030A05480168A3
:1006400041F47001016003494FF000608039086097
:100650007047000088ED00E0FEE702E008C8121FC6
:1006600008C1002AFAD170477047002001E001C19B
:10067000121F002AFBD17047114808B5016841F4E8
:1006800080410160006800F4804000900C48001F29
:10069000016841F08051016000680A4900F0805013
:1006A000009008684FF6FF021040074A40F440707F
:1006B00010430860FFF762FFFFF7C6FEFEE7000089
:1006C000443802400CED00E00000FA05EC0600089A
:1006D00000000020040000005A060008F006000890
:1006E00004000020040400006A0600080024F4004E
:040000050800018965
:00000001FF
